{
  "contractName": "GreerCoinIso",
  "abi": [
    {
      "inputs": [
        {
          "internalType": "contract GreerCoin",
          "name": "_tokenContract",
          "type": "address"
        },
        {
          "internalType": "uint256",
          "name": "_tokenPrice",
          "type": "uint256"
        }
      ],
      "payable": false,
      "stateMutability": "nonpayable",
      "type": "constructor"
    },
    {
      "anonymous": false,
      "inputs": [
        {
          "indexed": false,
          "internalType": "uint256",
          "name": "total",
          "type": "uint256"
        },
        {
          "indexed": false,
          "internalType": "uint256",
          "name": "tokenPrice",
          "type": "uint256"
        },
        {
          "indexed": false,
          "internalType": "uint256",
          "name": "numberOfTokens",
          "type": "uint256"
        },
        {
          "indexed": false,
          "internalType": "uint256",
          "name": "msgValue",
          "type": "uint256"
        }
      ],
      "name": "Log",
      "type": "event"
    },
    {
      "anonymous": false,
      "inputs": [
        {
          "indexed": true,
          "internalType": "address",
          "name": "_buyer",
          "type": "address"
        },
        {
          "indexed": false,
          "internalType": "uint256",
          "name": "_units",
          "type": "uint256"
        }
      ],
      "name": "Sell",
      "type": "event"
    },
    {
      "constant": true,
      "inputs": [],
      "name": "tokenContract",
      "outputs": [
        {
          "internalType": "contract GreerCoin",
          "name": "",
          "type": "address"
        }
      ],
      "payable": false,
      "stateMutability": "view",
      "type": "function"
    },
    {
      "constant": true,
      "inputs": [],
      "name": "tokenPrice",
      "outputs": [
        {
          "internalType": "uint256",
          "name": "",
          "type": "uint256"
        }
      ],
      "payable": false,
      "stateMutability": "view",
      "type": "function"
    },
    {
      "constant": true,
      "inputs": [],
      "name": "tokensSold",
      "outputs": [
        {
          "internalType": "uint256",
          "name": "",
          "type": "uint256"
        }
      ],
      "payable": false,
      "stateMutability": "view",
      "type": "function"
    },
    {
      "constant": false,
      "inputs": [
        {
          "internalType": "uint256",
          "name": "_numberOfTokens",
          "type": "uint256"
        }
      ],
      "name": "buyTokens",
      "outputs": [],
      "payable": true,
      "stateMutability": "payable",
      "type": "function"
    },
    {
      "constant": false,
      "inputs": [],
      "name": "endSale",
      "outputs": [],
      "payable": false,
      "stateMutability": "nonpayable",
      "type": "function"
    }
  ],
  "bytecode": "0x608060405234801561001057600080fd5b50604051610a64380380610a648339818101604052604081101561003357600080fd5b81019080805190602001909291908051906020019092919050505033600160006101000a81548173ffffffffffffffffffffffffffffffffffffffff021916908373ffffffffffffffffffffffffffffffffffffffff160217905550816000806101000a81548173ffffffffffffffffffffffffffffffffffffffff021916908373ffffffffffffffffffffffffffffffffffffffff16021790555080600281905550505061097d806100e76000396000f3fe60806040526004361061004a5760003560e01c80633610724e1461004f578063380d831b1461007d578063518ab2a81461009457806355a373d6146100bf5780637ff9b59614610116575b600080fd5b61007b6004803603602081101561006557600080fd5b8101908080359060200190929190505050610141565b005b34801561008957600080fd5b5061009261046e565b005b3480156100a057600080fd5b506100a961079e565b6040518082815260200191505060405180910390f35b3480156100cb57600080fd5b506100d46107a4565b604051808273ffffffffffffffffffffffffffffffffffffffff1673ffffffffffffffffffffffffffffffffffffffff16815260200191505060405180910390f35b34801561012257600080fd5b5061012b6107c9565b6040518082815260200191505060405180910390f35b3461014e826002546107cf565b146101a4576040517f08c379a00000000000000000000000000000000000000000000000000000000081526004018080602001828103825260428152602001806109076042913960600191505060405180910390fd5b806000809054906101000a900473ffffffffffffffffffffffffffffffffffffffff1673ffffffffffffffffffffffffffffffffffffffff166370a08231306040518263ffffffff1660e01b8152600401808273ffffffffffffffffffffffffffffffffffffffff1673ffffffffffffffffffffffffffffffffffffffff16815260200191505060206040518083038186803b15801561024357600080fd5b505afa158015610257573d6000803e3d6000fd5b505050506040513d602081101561026d57600080fd5b810190808051906020019092919050505010156102d5576040517f08c379a000000000000000000000000000000000000000000000000000000000815260040180806020018281038252604c81526020018061088e604c913960600191505060405180910390fd5b6000809054906101000a900473ffffffffffffffffffffffffffffffffffffffff1673ffffffffffffffffffffffffffffffffffffffff1663a9059cbb33836040518363ffffffff1660e01b8152600401808373ffffffffffffffffffffffffffffffffffffffff1673ffffffffffffffffffffffffffffffffffffffff16815260200182815260200192505050602060405180830381600087803b15801561037d57600080fd5b505af1158015610391573d6000803e3d6000fd5b505050506040513d60208110156103a757600080fd5b810190808051906020019092919050505061040d576040517f08c379a00000000000000000000000000000000000000000000000000000000081526004018080602001828103825260298152602001806108656029913960400191505060405180910390fd5b806003600082825401925050819055503373ffffffffffffffffffffffffffffffffffffffff167f5e5e995ce3133561afceaa51a9a154d5db228cd7525d34df5185582c18d3df09826040518082815260200191505060405180910390a250565b600160009054906101000a900473ffffffffffffffffffffffffffffffffffffffff1673ffffffffffffffffffffffffffffffffffffffff163373ffffffffffffffffffffffffffffffffffffffff1614610531576040517f08c379a00000000000000000000000000000000000000000000000000000000081526004018080602001828103825260178152602001807f6f6e6c792061646d696e2063616e20656e642073616c6500000000000000000081525060200191505060405180910390fd5b6000809054906101000a900473ffffffffffffffffffffffffffffffffffffffff1673ffffffffffffffffffffffffffffffffffffffff1663a9059cbb600160009054906101000a900473ffffffffffffffffffffffffffffffffffffffff166000809054906101000a900473ffffffffffffffffffffffffffffffffffffffff1673ffffffffffffffffffffffffffffffffffffffff166370a08231306040518263ffffffff1660e01b8152600401808273ffffffffffffffffffffffffffffffffffffffff1673ffffffffffffffffffffffffffffffffffffffff16815260200191505060206040518083038186803b15801561062f57600080fd5b505afa158015610643573d6000803e3d6000fd5b505050506040513d602081101561065957600080fd5b81019080805190602001909291905050506040518363ffffffff1660e01b8152600401808373ffffffffffffffffffffffffffffffffffffffff1673ffffffffffffffffffffffffffffffffffffffff16815260200182815260200192505050602060405180830381600087803b1580156106d357600080fd5b505af11580156106e7573d6000803e3d6000fd5b505050506040513d60208110156106fd57600080fd5b8101908080519060200190929190505050610763576040517f08c379a000000000000000000000000000000000000000000000000000000000815260040180806020018281038252602d8152602001806108da602d913960400191505060405180910390fd5b600160009054906101000a900473ffffffffffffffffffffffffffffffffffffffff1673ffffffffffffffffffffffffffffffffffffffff16ff5b60035481565b6000809054906101000a900473ffffffffffffffffffffffffffffffffffffffff1681565b60025481565b6000808214806107ec57508282838502925082816107e957fe5b04145b61085e576040517f08c379a00000000000000000000000000000000000000000000000000000000081526004018080602001828103825260148152602001807f64732d6d6174682d6d756c2d6f766572666c6f7700000000000000000000000081525060200191505060405180910390fd5b9291505056fe546f6b656e732073686f756c64206265207472616e73666572726564207375636365737366756c6c79546865206e756d626572206f6620746f6b656e73207265717565737465642073686f756c64206e6f742065786365656420756e69747320617661696c61626c6520746f20636f6e74726163746d757374207472616e736665722072656d61696e696e672062616c616e6365206261636b20746f2061646d696e5468652065746865722073656e7420627920636c69656e74206d617463686573207468652076616c7565206f662074686520746f6b656e7320726571756573746564a265627a7a72315820604f4ae04eae46183d5e99770a80737dbbe5de84b0a0fb95f861740d324bb2ae64736f6c63430005100032",
  "source": "pragma solidity >=0.4.22 <0.9.0;\n\nimport \"./GreerCoin.sol\";\n\ncontract GreerCoinIso {\n\n    GreerCoin public tokenContract;\n\n    address payable admin;\n    uint256 public tokenPrice;\n    uint256 public tokensSold;\n\n    event Sell(\n        address indexed _buyer,\n        uint256 _units  \n    );\n\n    event Log(\n        uint256 total,\n        uint256 tokenPrice,\n        uint256 numberOfTokens,\n        uint256 msgValue\n    );\n\n    constructor(GreerCoin _tokenContract, uint256 _tokenPrice) public {\n        // Assign an admin\n        admin = msg.sender;\n\n        // Assign token contract\n        tokenContract = _tokenContract;\n        \n        // Set token price\n        tokenPrice = _tokenPrice;\n    }\n\n    // https://github.com/dapphub/ds-math/blob/master/src/math.sol\n    function multiply(uint x, uint y) internal pure returns (uint z) {\n        require(y == 0 || (z = x * y) / y == x, \"ds-math-mul-overflow\");\n    }\n\n    // Buy tokens\n    function buyTokens(uint256 _numberOfTokens) public payable {\n\n        // Require that value is equal to the worth of token purchase\n        require(multiply(_numberOfTokens, tokenPrice) == msg.value, \"The ether sent by client matches the value of the tokens requested\");\n\n        // Require that contract has enough tokens\n        require(tokenContract.balanceOf(address(this)) >= _numberOfTokens, \"The number of tokens requested should not exceed units available to contract\");\n\n        // Require that same was successful\n        require(tokenContract.transfer(msg.sender, _numberOfTokens), \"Tokens should be transferred successfully\");\n\n        // Keep track of tokens sold\n        tokensSold += _numberOfTokens;\n\n        // Trigger Sell event\n        emit Sell(msg.sender, _numberOfTokens); \n    }\n\n    function endSale() public {\n        // Only allow admin to send sale\n        require(msg.sender == admin, \"only admin can end sale\");\n\n        // Transfer remaining dapp tokens back to admin\n        require(tokenContract.transfer(admin, tokenContract.balanceOf(address(this))), \"must transfer remaining balance back to admin\");\n\n        // Destroy contract\n        selfdestruct(admin);\n    }\n\n\n}",
  "sourcePath": "/Users/hanshawg/Desktop/greer_coin_frontend/contracts/GreerCoinIso.sol",
  "compiler": {
    "name": "solc",
    "version": "0.5.16+commit.9c3226ce.Emscripten.clang"
  },
  "schemaVersion": "3.3.4",
  "updatedAt": "2021-03-09T04:39:33.444Z",
  "networkType": "ethereum",
  "devdoc": {
    "methods": {}
  },
  "userdoc": {
    "methods": {}
  }
}